{
  "address": "0x2cD5cc3fd4997e4439d689B6Fdb6932B65DDD4FC",
  "abi": [
    {
      "inputs": [
        {
          "components": [
            {
              "internalType": "address",
              "name": "dao",
              "type": "address"
            },
            {
              "internalType": "address",
              "name": "daoTreasury",
              "type": "address"
            },
            {
              "internalType": "address",
              "name": "cryptoGrow",
              "type": "address"
            },
            {
              "internalType": "address",
              "name": "rarityFarming",
              "type": "address"
            },
            {
              "internalType": "address",
              "name": "hrvstContract",
              "type": "address"
            },
            {
              "internalType": "bytes32",
              "name": "chainlinkKeyHash",
              "type": "bytes32"
            },
            {
              "internalType": "uint256",
              "name": "chainlinkFee",
              "type": "uint256"
            },
            {
              "internalType": "address",
              "name": "vrfCoordinator",
              "type": "address"
            },
            {
              "internalType": "address",
              "name": "linkAddress",
              "type": "address"
            },
            {
              "internalType": "address",
              "name": "childChainManager",
              "type": "address"
            },
            {
              "internalType": "string",
              "name": "name",
              "type": "string"
            },
            {
              "internalType": "string",
              "name": "symbol",
              "type": "string"
            }
          ],
          "internalType": "struct InitDiamond.Args",
          "name": "_args",
          "type": "tuple"
        }
      ],
      "name": "init",
      "outputs": [],
      "stateMutability": "nonpayable",
      "type": "function"
    }
  ],
  "transactionHash": "0x1377c608081c004b4b4dbe10d2ca604606afc1a62f7b7397f79fd8bf0f0dd832",
  "args": [],
  "numDeployments": 1,
  "solcInputHash": "7128d6097e1722349a7cd3ded72bb486",
  "bytecode": "0x608060405234801561001057600080fd5b5061069a806100206000396000f3fe608060405234801561001057600080fd5b506004361061002b5760003560e01c8063d66736fe14610030575b600080fd5b61004361003e3660046104cd565b610045565b005b80517f72fab1b3b0ef08a69b37c2aab5b9515b729499690ee1e961a2f6ccfc5d4e456780546001600160a01b03199081166001600160a01b039384161782556020808501517f72fab1b3b0ef08a69b37c2aab5b9515b729499690ee1e961a2f6ccfc5d4e4568805484169186169190911790556060808601517f72fab1b3b0ef08a69b37c2aab5b9515b729499690ee1e961a2f6ccfc5d4e456a805485169187169190911790556040808701517f72fab1b3b0ef08a69b37c2aab5b9515b729499690ee1e961a2f6ccfc5d4e4569805490951696169590951790925583519182019093526026808252919290919061063f90830139805161015091600784019160209091019061034b565b506101208201516006820180546001600160a01b0319166001600160a01b03909216919091179055604080518082018252601181527018dc9e5c1d1bd1dc9bddd11a585b5bdb99607a1b6020808301918252835180850185526002815261563160f01b908201529151902082517f8b73c3c69bb8fe3d512ecc4cf759cc79239f7b179b0ffacaa9a75d522b39400f81840152808401919091527f4c23426613a5dc69e08fbd2787e6210aa679d4522e95a89d4dd88c4fd13a228360608201524660808201523060a0808301919091528351808303909101815260c09091019092528151910120600882015560808201516004820180546001600160a01b03199081166001600160a01b039384161790915560a0840151600984015560c0840151600a8401805471ffffffffffffffffffffffffffffffffffff191671ffffffffffffffffffffffffffffffffffff90921691909117905560e08401516005840180548316918416919091179055610100840151600b84018054909216921691909117905567016345785d8a0000600c82015561014082015180517f2967a798b92539a1b9eefe4d8eb931f96b68d27665e276f1bee2d5db7f7430479161031b9183916020019061034b565b50610160830151805161033891600184019160209091019061034b565b50600201805460ff191660121790555050565b82805461035790610603565b90600052602060002090601f01602090048101928261037957600085556103bf565b82601f1061039257805160ff19168380011785556103bf565b828001600101855582156103bf579182015b828111156103bf5782518255916020019190600101906103a4565b506103cb9291506103cf565b5090565b5b808211156103cb57600081556001016103d0565b634e487b7160e01b600052604160045260246000fd5b604051610180810167ffffffffffffffff8111828210171561041e5761041e6103e4565b60405290565b80356001600160a01b038116811461043b57600080fd5b919050565b600082601f83011261045157600080fd5b813567ffffffffffffffff8082111561046c5761046c6103e4565b604051601f8301601f19908116603f01168101908282118183101715610494576104946103e4565b816040528381528660208588010111156104ad57600080fd5b836020870160208301376000602085830101528094505050505092915050565b6000602082840312156104df57600080fd5b813567ffffffffffffffff808211156104f757600080fd5b90830190610180828603121561050c57600080fd5b6105146103fa565b61051d83610424565b815261052b60208401610424565b602082015261053c60408401610424565b604082015261054d60608401610424565b606082015261055e60808401610424565b608082015260a083013560a082015260c083013560c082015261058360e08401610424565b60e0820152610100610596818501610424565b908201526101206105a8848201610424565b9082015261014083810135838111156105c057600080fd5b6105cc88828701610440565b82840152505061016080840135838111156105e657600080fd5b6105f288828701610440565b918301919091525095945050505050565b600181811c9082168061061757607f821691505b6020821081141561063857634e487b7160e01b600052602260045260246000fd5b5091905056fe68747470733a2f2f63727970746f67726f772e636f6d2f6d657461646174612f6974656d732fa2646970667358221220e07b66395c94265fccd8db74ee798ae7a7d97d1fbb7459e27124c2078c395e1864736f6c63430008090033",
  "devdoc": {
    "kind": "dev",
    "methods": {},
    "version": 1
  },
  "userdoc": {
    "kind": "user",
    "methods": {},
    "version": 1
  },
  "storageLayout": {
    "storage": [],
    "types": null
  }
}